:020000041FFFDC
:10800000202A00205583FF1F6183FF1F6383FF1F0A
:108010006583FF1F6783FF1F6983FF1F0000000048
:108020000000000000000000000000005582FF1F5B
:108030006D83FF1F000000002583FF1F3583FF1F96
:108040007383FF1F7383FF1F7383FF1F7383FF1FE0
:108050007383FF1F7383FF1F7383FF1F7383FF1FD0
:108060007383FF1F000000007383FF1F7383FF1FD4
:108070007383FF1F7383FF1F7383FF1F7383FF1FB0
:108080007383FF1F7383FF1F7383FF1F7383FF1FA0
:108090007383FF1F7383FF1F7383FF1F7383FF1F90
:1080A0007383FF1F7383FF1F7383FF1F7383FF1F80
:1080B0007383FF1F7383FF1F7383FF1F7383FF1F70
:1080C0007383FF1F7383FF1F7383FF1F7383FF1F60
:1080D0007383FF1F7383FF1F7383FF1F7383FF1F50
:1080E0007383FF1F7383FF1F7383FF1F7383FF1F40
:1080F0007383FF1F7383FF1F7383FF1F7383FF1F30
:108100007383FF1F7383FF1F7383FF1F7383FF1F1F
:108110007383FF1F7383FF1F7383FF1F7383FF1F0F
:108120007383FF1F7383FF1F7383FF1F7383FF1FFF
:108130007383FF1F7383FF1F7383FF1F7383FF1FEF
:108140007383FF1F7383FF1F7383FF1F7383FF1FDF
:108150007383FF1F7383FF1F7383FF1F7383FF1FCF
:108160007383FF1F7383FF1F7383FF1F7383FF1FBF
:108170007383FF1F7383FF1F7383FF1F7383FF1FAF
:108180007383FF1F7383FF1F7383FF1F7383FF1F9F
:108190007383FF1F7383FF1F7383FF1F7383FF1F8F
:1081A0007383FF1F7383FF1F7383FF1F7383FF1F7F
:1081B0007383FF1F7383FF1F7383FF1F7383FF1F6F
:1081C0007383FF1F7383FF1F7383FF1F7383FF1F5F
:1081D0007383FF1F7383FF1F7383FF1F7383FF1F4F
:1081E0007383FF1F7383FF1F7383FF1F7383FF1F3F
:1081F0007383FF1F7383FF1F7383FF1F7383FF1F2F
:108200007383FF1F7383FF1F7383FF1F7383FF1F1E
:108210007383FF1F7383FF1F7383FF1F7383FF1F0E
:108220007383FF1F7383FF1F7383FF1F7383FF1FFE
:108230007383FF1F7383FF1F7383FF1F7383FF1FEE
:10824000DFF80CD000F0BEF800480047B18AFF1FED
:10825000202A00201EF0040F0CBFEFF30880EFF37C
:108260000980816911F8021C00294DD101B590E8FF
:108270000F10E047BDE80050CCF80000314B93E808
:108280000600914208BF70471A6041B91EF0100FF6
:108290002CD12D4B186820F00100186026E0ACF1BD
:1082A000200C1EF0100F08BFACF1400C81F822E04A
:1082B000C1F838C006B4084601F064FA06BC50B9EB
:1082C0000C46012000F020FD204B5A681A60002166
:1082D00094F922E0DAE7D1F838C091F922E01EF0F3
:1082E000100F08BFACEC108A8CE8F00F1400A06BE4
:1082F00094F922E01EF0100F08BFB0EC108AB0E82D
:10830000F00F80F309887047114A13689942FAD830
:1083100001B552F821C00FC8E047BDE80050CCF8C5
:108320000000704701B500F04FFFBDE80140EFF3DA
:10833000098CA3E701B501F03DFBBDE80140EFF377
:10834000098C9BE72000002034EF00E02000002093
:108350000CA7FF1F72B60748804762B60648004761
:10836000FEE7FEE7FEE7FEE7FEE7FEE7FEE7FEE7E5
:10837000FEE7FEE7C586FF1F4182FF1F40EA0103BB
:108380009B0703D009E008C9121F08C0042AFAD2CB
:1083900003E011F8013B00F8013B521EF9D270478F
:1083A000D2B201E000F8012B491EFBD27047002237
:1083B000F6E710B513460A4604461946FFF7F0FFE4
:1083C000204610BD1CB5094800900948019005469B
:1083D000009C06E0E06840F0010394E8070098473D
:1083E0001034AC42F6D3FFF72FFF000074A8FF1F34
:1083F00094A8FF1F70B582B000244BF68035C3F2FD
:108400003804C3F2380500262046294600220023FE
:10841000009600F075F84FF08050686044F6E01068
:1084200040F22842C3F2380041F21111C3F23D027A
:108430000C23016013600822C3F22A02138823F080
:10844000010313804FF2C062CFF6FF720660C4F8DA
:108450006018C4F8801881504FF2D062CFF6FF72D6
:1084600081504FF2E062CFF6FF7281504FF68002EA
:10847000CFF6FF72C0F8A010C0F8B010815002B063
:1084800070BD000040F20420C3F23D000321C0F89B
:108490009413C0F81813012101607047D0F8B000A0
:1084A000C00342BF43F20060C0F26E107047B020BC
:1084B000C3F236000068C0074AF20040C1F6787087
:1084C00004BF43F60000C1F69C4070474AB143B177
:1084D0000868C0F302401060086800F03F001860B0
:1084E00070474AF2827103A0C1F6FF713D2200F08D
:1084F000DFF900BF70726520262620706F7374004C
:1085000080B5082B14D2DDF808C0BCF1400F1AD298
:10851000D1F800E04FF6C070CFF6F80000EA0E0088
:1085200062F31A6040EA034040EA0C00086080BD34
:108530004AF27A704AF28271C1F6FF70C1F6FF7199
:108540004B2200F0B5F94AF270704AF28271C1F61E
:10855000FF70C1F6FF714C2200F0AAF970470000CD
:10856000704700007047000070470000704700002F
:10857000704700007047000070470000704700001F
:10858000704700007047000070470000704700000F
:1085900070470000704700007047000070470000FF
:1085A00070470000704700007047000070470000EF
:1085B00070470000704700007047000070470000DF
:1085C00070470000704700007047000070470000CF
:1085D00070470000704700007047000070470000BF
:1085E00070470000704700007047000070470000AF
:1085F000704700007047000070470000704700009F
:10860000704700007047000070470000704700008E
:1086100070470000704700007047000000F0BCB9D0
:108620004EF21000CEF200000068704740F2B00039
:10863000C2F200000178012908D1002101704EF634
:108640000450CEF200004FF0806101604EF2100045
:10865000CEF20000016841F00101016070470000A6
:108660004FF0FF307047000058B140F20801C2F2ED
:1086700000010968B1FBF0F0411E0020B0EB116F62
:1086800002D04FF0FF3070474EF62352CEF2000278
:10869000FF2313704EF21002CEF200020623136085
:1086A000516040F2B001C2F2000190600870704762
:1086B00040F2080041F60041C2F20000C0F64E61EF
:1086C0000160704748F200004EF68851C1F6FF7015
:1086D000CEF2000141F8800C086840F47000086098
:1086E00070470000B0B5002950D0D0F88020012399
:1086F00022F00102C0F88020D0F8802022F0010290
:10870000C0F880200022C0F88020C0F884304FF4E8
:10871000E063C0F888304FF40043C0F88C3040F676
:108720000103C0F890302B23C0F89C306023C0F8C0
:10873000A020C0F8B020C0F8B430C0F8B820D0F8FD
:10874000842022F00102C0F8842000BFD0F88420E9
:10875000D207FBD0D1E902E3D1E900C2D1E904415B
:1087600043EA0E03D0F8845023431943294341F4CC
:108770008041C0F88410D0F8881041F004036146AD
:10878000C0F88830BDE8B04000F00EB84AF61F01CE
:1087900002A0C1F6FF71312200F08AF8696E697497
:1087A000436F6E666967000070B512010BD00D460D
:1087B000134600BF1C46B5FBF3F303FB14532546D9
:1087C000002BF7D100E00124B1FBF4F5B2FBF4F388
:1087D0004FF6F972C0F2060248F2010C9542C8F257
:1087E000000C98BFB3F5803F22D346F6B954A5F1EB
:1087F000010EC2F29344AEFB04425C1EA4FB0C4685
:10880000AEEB020402EB5402012404EB924204EBAF
:10881000D634A24288BF1446B5FBF4F2B3FBF4FE93
:10882000AC4288BF01229C4288BF4FF0010E01E09C
:108830009E462A46531EA3FB0C364FF0FF3303EB34
:10884000D633052B4FEAD6349ABF13A656F82330F9
:108850000523D0F89060651C26F46076C0F890601F
:10886000D0F89060B2FBF5F246EAC316C0F890600B
:10887000AEF10106B6B2C0F8A4604FF47A76734345
:10888000B1FBF3F1013A92B221F07F41C0F8A82088
:10889000C0F8B01070BD00BF04000000030000006D
:1088A00002000000010000000000000006000000BF
:1088B00084B040F20405C2F2000514460E46074695
:1088C0001DA0162101222B4601F0A5FE384629469F
:1088D00001F095FE1EA0072101222B4601F09BFE10
:1088E0003046294601F08BFE1BA0072101222B46B2
:1088F00001F091FE01A80A300A21012CADF80E10FA
:1089000012DB4CF6CD41CCF6CC4100BFA4FB0123D9
:10891000DA0802EB8203A4EB430343F0300300F8D0
:10892000013D092C1446F1D840F20401C2F20001C5
:1089300001F065FE00F014F82A2A2A20617373659D
:108940007274696F6E206661696C65643A2000001C
:108950002C2066696C6520002C206C696E652000F7
:10896000FEE700000021C3F28901884218BF70476A
:1089700040F23010C3F233000021016041607821E1
:10898000C0F87012C0F8741240F2FC60C3F23300F9
:108990000221016070470000B0B588B040F2A450D9
:1089A000C3F23D000C214BF2000401600020C3F231
:1089B00038040025C3F23800214600220023009528
:1089C000FFF79EFD4FF08050606044F65010002489
:1089D000C3F2380042F22221C3F28904016020462A
:1089E000FFF7C0FF204600F02BF802904FF4E13073
:1089F00003902020CDE904050620079002A9204617
:108A00000695FFF76FFED4F8800040F00100C4F82F
:108A1000800008B0B0BD000040F20002C2F20002C7
:108A2000914208BF01F0D4B840F20402C2F2000241
:108A300091421CBF4FF0FF30704701F0BDB80000FD
:108A40000021C3F2890188421CBF00207047B0B5E5
:108A500082B04BF20001C3F2380108680024C3F26F
:108A60003604C0F3026504F5003001AA6B46FFF737
:108A70002DFD65B1042D06D0012D16D12046FFF73E
:108A80000DFD400807E02046FFF708FD03E043F234
:108A90000060C0F26E100199009A0131B0FBF1F054
:108AA000511CB0FBF1F002B0B0BD002002B0B0BD6F
:108AB000FFF7E8FCFFF79EFCFFF7FAFDFFF7AEFDBE
:108AC00000F028F84AF2A950C1F6FF7000210022F8
:108AD00001F052F800F03AF8FEE7000010B5044645
:108AE000FFF73CFDEFF3058028B9EFF3108010B9D4
:108AF000EFF3118030B16FF00500FFF733FD6FF039
:108B0000050010BD49F6E93C2046C1F6FF7C00DFB8
:108B100010BD000080B500F0F5F8FFF72DFDEFF374
:108B2000058028B9EFF3108010B9EFF3118030B150
:108B30006FF00500FFF71CFD6FF0050080BD49F6E2
:108B40001D4CC1F6FF7C00DF80BD000080B5FFF743
:108B500017FDEFF3058028B9EFF3108010B9EFF39C
:108B6000118030B16FF00500FFF702FD6FF00500D6
:108B700080BD49F6795CC1F6FF7C00DF80BD000056
:108B8000F0B581B01F4616460C460546FFF70EFDB0
:108B9000EFF3058030B9EFF3108018B9EFF31180CF
:108BA00000284CD0002D39D0002F37D1002C35D0E3
:108BB0002878FA2832D105F1280050E8001F11B9B1
:108BC000BFF32F8F04E04A1E40E8002303B1F4E70F
:108BD00071B1EF6A67B10120B91CD1E84F2FC1E82C
:108BE000430F03B1F9E7110603D0BF68002FF3D19B
:108BF0000027EFB16A6A07F10C012046FFF7BEFBC0
:108C0000002E1CBFF87830703846FD6000F032FB53
:108C100028462146FFF7DEFC002406E028466FF0D8
:108C200003016FF00304FFF7BFFC204601B0F0BD65
:108C300028462146FFF7C6FC6FF00204F5E749F627
:108C4000196C2846C1F6FF7C214632463B4600DFC0
:108C500001B0F0BD2DE9F0411F4690460C46054697
:108C6000FFF7B2FCEFF3058028B9EFF3108010B9DD
:108C7000EFF31180B0B31DB317BB0CB32878FA28FB
:108C80001ED105F10C0000F0D7F818B36A6A00F1A4
:108C90000C01064608462146FFF770FBF9203070AC
:108CA00000273046B77086F80380C6E9014500F01A
:108CB000E1FA28462146FFF77FFC3846BDE8F081FF
:108CC00028466FF003016FF00307FFF76DFC38468D
:108CD000BDE8F08128462146FFF772FC6FF00200E4
:108CE000BDE8F0814AF2451C2846C1F6FF7C2146CA
:108CF00042463B4600DFBDE8F0810000FEE7000091
:108D0000FEE7000070470000B0B50C460546FFF7CF
:108D100031FC28462146BDE8B040FFF7EFBF000018
:108D200070B5002818BF002905D100230024FFF7E3
:108D30002BFC204670BD042AF7D201F10F0323F06B
:108D4000070C00F1080400BFD4E9003525F0030545
:108D500025445D1B654504D21D681C46002DF3D1DA
:108D6000E3E7D0E9005E054455F8046CE644764537
:108D7000C0F804E03CBF083DC5F804E065684DB1AB
:108D800025F00306351933514CEA020325602C46C1
:108D90006B6002E04CEA0203636008342346C6E7D6
:108DA00010B500284FF0000418BF002904D1224656
:108DB000FFF7F2FB204610BDA1F1080400F1080204
:108DC000944205D01346126882B1A242FAD100E063
:108DD0000023D2F804C0D0F804E02CF00304AEEB7A
:108DE0000404446023B112681A6003E00024DEE743
:108DF000002353600124DAE710B5B8B110F0070280
:108E000014D1182912D311F007020FD10B18A3F1B6
:108E100008048460002443F8084C836810224260F0
:108E20005A60C46001220124016001E00022002494
:108E3000FFF7B4FB204610BDB0B5002817D000F1F5
:108E4000140151E8004F14B9BFF32F8F04E02268DA
:108E500041E8002303B1F4E73CB1011D51E8002FC4
:108E6000531C41E8003505B1F8E7214602E0002037
:108E700000210024FFF78AFB2046B0BDB0B50028D2
:108E80001FD0C26891421CD30269914219D200F1ED
:108E9000140213680B60BFF35F8F52E8003F0C6849
:108EA0009C42F6D142E8001505B1F2E7021D52E8F6
:108EB000003F5C1E42E8004505B1F8E700220024AF
:108EC00003E06FF003026FF00304FFF761FB20463D
:108ED000B0BD0000F0B581B00E4600284FF0000193
:108EE00018BF002E1ED01446E2B11D46D3B104FBBC
:108EF00006510027C0E90415314622462B46C0E939
:108F00000067C0E90245FFF745FB012E07D070421C
:108F1000291901302960421C0D46F9D100E029468B
:108F20000F600121084601B0F0BD00002DE9F043BB
:108F300081B0044680786168002850D0D4E90205E9
:108F4000002905F12C08424618BF01F10802106003
:108F5000A06805F10C06021D00284FF0000008BFB4
:108F600005F130021160207030462146FFF786FF80
:108F7000A868002800F09D803046FFF75DFF0028BC
:108F800000F097800446284600F022FB00210022D2
:108F900006464FF0000900F0BBFC304600F0E8FB4D
:108FA00046686A6A074604F10C003146FFF7E6F9A5
:108FB000F9202070284650F8302F3B7A002A84F898
:108FC0000290E37054D0D17899425AD21146526837
:108FD000002A00F07180D7789F42F7D352E0A5684D
:108FE000A86868B3407883282AD12846FFF7E6FAB4
:108FF000284600F0EDFA0021002206464FF0000856
:1090000000F086FC304600F0B3FB46686A6A07460B
:1090100004F10C013046FFF7B1F9B86800281CBF15
:10902000E178017028463146FFF7D4FA05F10C00CB
:10903000214684F8008001B0BDE8F043FFF71EBF71
:109040002846FFF7BBFA284650F8302F5AB1E3788C
:10905000D178994210D200BF11465268BAB1D77880
:109060009F42F9D309E00021C4E90111EC6216E046
:10907000C4E90199EC6226E00021C4E9012108322B
:1090800009E00021C4E9012102F1080816E0C4E961
:10909000012105F12C021460002918BF081D04608D
:1090A00005F1280050E8001F4A1C40E8002303B1E6
:1090B000F8E701B0BDE8F083C4E90121C8F8004039
:1090C000002918BF081D046005F1280050E8001FA2
:1090D0004A1C40E8002303B1F8E72846314601B0B6
:1090E000BDE8F043FFF76ABA80B54AF26460C1F6A2
:1090F000FF70D0E91A20082100F06EFF40F20C0248
:109100000146C2F200020020002908BF4FF0FF30E4
:10911000D16480BD002808BF70472DE9F0410446A6
:1091200000274FF0010800E01CB3E0782546646991
:109130000007F9D5284600212F76FFF751FAA868D5
:109140000028F1D0284600F043FA0021002206460C
:1091500000F0DEFBF06AEE602F610028686118BF46
:10916000056128460121F56285F81880FFF736FA77
:10917000DAE7BDE8F0417047C278920758BF704700
:10918000C06890F821C0C36A02E000BF5B6983B188
:10919000DA789207FAD59A688A4208BF9268002A5C
:1091A000F4D092F920204FFA8CFC6245C8BF944657
:1091B000ECE790F820105FFA8CF2914200D17047F2
:1091C00080F820C000F032BA2DE9F04140F20C04E2
:1091D000C2F2000404F1560540F265160FF2700861
:1091E00004F15A07B4F85400D5E85F1F11B9BFF372
:1091F0002F8F04E04A1EC5E8532F03B1F4E709049A
:1092000010D0D7E85F1F4A1C904200D80022C7E860
:10921000532F03B1F5E7E06D89B250F8210018B97A
:1092200010E000BF002068B101780F31C9B20829F1
:10923000D8D826FA01F2D207D4D058F821100968FC
:109240008847CFE70020BDE8F04100F003B900BF38
:109250006C0000206C000020700000206C000020DA
:109260006C00002074000020780000206C000020BA
:109270007C00002070B540F20C02C2F20002B2F88D
:10928000543002F15601D1E85F4FA34202D8BFF338
:109290002F8F04E0651CC1E8565F06B1F3E7A1B269
:1092A0009942014614D202F15800D0E85F4F651C84
:1092B000AB4200D80025C0E8565F06B1F5E7D06D97
:1092C000A3B240F82310507A38B10120907270BDDB
:1092D0000220BDE87040FFF717BD4EF60450CEF2F5
:1092E00000004FF08051016070BD00007047000029
:1092F0002DE9F04381B040F20C08C2F20008D8F822
:109300002C401CB1E0690138E06102D001B0BDE839
:10931000F083012708F11C064FF00009607813382C
:109320004FEA301008285BD8DFE800F0055A153105
:109330003D4E091925002046FFF712F950E020782C
:10934000F128204604D12046C0680178F129FBD0DD
:10935000FFF726F944E02046FFF752F940E0207875
:10936000F128204604D12046C0680178F129FBD0BD
:10937000FFF720F934E02078F128204604D1204678
:10938000C0680178F129FBD0FFF722F928E02078A6
:10939000F128204604D12046C0680178F129FBD08D
:1093A000FFF7E4F81CE020782546F12804D1254693
:1093B000ED682878F128FBD028462146FFF7DCFE2F
:1093C0002846FFF709F90BE02078F128204605D15F
:1093D000204600BFC0680178F129FBD0FFF702F9F1
:1093E00094F82200A16BC0064FF0200058BF602007
:1093F00041582046FFF70EF9E06838B1A168816056
:10940000A168002918BFC860C4F80C9094F9202006
:10941000304667700146806850B190F92030934221
:10942000F8DAC4E902018C6000F10C0204E000BF2C
:1094300001F10802C4E90201146024692CB1E06959
:1094400000283FF46BAF00206061C8F82C4001B0E9
:10945000BDE8F08370B540F20C06C2F20006044687
:10946000317A706964B3022918D194F9202090F9F7
:1094700020108A4212DD0122427006F11C0200BF58
:1094800013469268002A57D092F920508D42F7DC9B
:10949000C0E90223986002F10C0151E0012094F927
:1094A0002010607006F11C000246806878B390F9C5
:1094B00020308B42F8DAC4E902029460C46070BDC7
:1094C000022927D1746A2CB394F9202090F9201036
:1094D0008A42D8BF70BDE2683AB1A3689360A368BE
:1094E000002B18BFDA600022E2600122427006F110
:1094F0001C0200BF134692686AB192F920508D4257
:10950000F8DCC0E90223986002F10C0107E0C4E92D
:109510000202946070BD03F10801C0E902230860F3
:10952000FFF774F8E07802214007617054BF032010
:10953000022080F314880FE003F10801C0E9022340
:109540000860FFF763F8E07802214007617054BFBC
:109550000320022080F31488BFF36F8F2046B4618C
:10956000BDE87040FFF754B810B50446FFF7BEFEE3
:10957000A07800218207218012D5216BC00607D474
:1095800040F20C00C2F20000406FFFF709FC07E058
:1095900040F20C00C2F20000D0F88400FFF76EFC2D
:1095A000A078C00708BF10BD40F20C01C2F2000154
:1095B000D1F8880020B12146BDE81040FFF75EBC1D
:1095C000D1F880002146BDE81040FFF7E9BB00005C
:1095D000014680688268002A8A6018BFD160002135
:1095E000C160704791F920C00246806850B190F97F
:1095F00020306345F8DA00F10C03C1E90202916002
:109600001960704702F10803C1E90202196070474E
:10961000C168002908BF704782688A608268002A92
:1096200018BFD1600021C1607047000090B301787D
:10963000F1290AD1014600BFC96859B30A78F12A55
:10964000FAD0B1FA81F2520903E0B0FA80F14A0986
:109650000146002A18BF7047C2683AB18368936018
:109660008368002B18BFDA600022C26090F920C026
:109670000A46896849B191F920306345F8DAC0E9B2
:109680000212906001F10C0303E002F10803C0E94B
:109690000212186070470000B0B54178332918BF36
:1096A000B0BD90F82320416A930713D4D20700F18C
:1096B00028022CD152E8004F0C4203D1BFF32F8F68
:1096C000002405E024EA010342E8003505B1F1E792
:1096D0007CB92EE0846A04EA0103591A18BF0121FB
:1096E000D207B3FA83F308BF5909002918BF002431
:1096F000FCB121460022054600F00AF9686A95F897
:10970000231022462B46BDE8B040FEF777BF52E853
:10971000004F04EA01038B4203D0BFF32F8F0024D4
:1097200005E024EA010342E8003505B1EFE7002C2B
:10973000DFD1B0BD0121417040F20C01C2F2000145
:1097400090F920C01C3100BF0A46896851B191F9D7
:1097500020306345F8DA01F10C03C0E90212906091
:109760001860704702F10803C0E9021218607047E0
:1097700090F82210806BC9064FF0200158BF60217D
:1097800008447047016B806B88429CBF0020704783
:1097900008684DF25B11C1F6A5510844B0FA80F09B
:1097A0004009704770B54AF26464C1F6FF7448F628
:1097B0000150A26DC1F6FF70666E002100F0C8FD79
:1097C00040F20C05C2F20005A86276B1B04700284D
:1097D0001CBF002070BDD4E91720E96C00F0B8FD73
:1097E000A864002818BF012070BD012070BD0000D2
:1097F000C17802224907427054BF0321022181F33C
:10980000148840F20C01C2F20001BFF36F8F88612F
:10981000FEF7FEBE2DE9F04140F20C08C2F200084E
:1098200098F808200E46911EB1FA81F1D8F824204C
:109830004909002A18BF012201EA0204012C63D160
:10984000D8F81450074628463146FEF7CDFE701C66
:109850006F7028D0D8F82C00B0FA80F14FEA51117F
:1098600010B1C369B34211D9002202F11003002ADA
:10987000EE61C5E9040208BF08F12C031D6041BB7D
:10988000C169891BC161143022E000BF0246006932
:10989000F61AB0FA80F100284FEA5111E5D0C369F9
:1098A000B342F3D9E1E708F130000022034600BFDC
:1098B00011461A68002A02F11003F9D14FF0FF3265
:1098C000EA6100220029C5E9042118BF01F1100056
:1098D0000560D8F8240081680029C8F824101CBF4E
:1098E00008F11C02CA600021C160C1780222490748
:1098F000427054BF0321022181F31488BFF36F8F9C
:10990000C8F81800FEF784FE2046BDE8F08100008C
:1099100070B514460D460646FEF77CFE96F82210FA
:10992000B26BC9064FF0200158BF60218D50F2691B
:1099300031693046531C0DD021B1CB691A444369BB
:10994000CA614B6142695AB940F20C02C2F200028C
:10995000D16208E000291CBF42694A6142691AB31A
:109960001161002141610021C1611CB1BDE870405D
:10997000FFF770BD0121417040F20C01C2F20001FD
:1099800090F920201C3100BF0B46896841B191F944
:1099900020609642F8DAC0E902139860C86070BD92
:1099A000C0E90213986070BD40F20C02C2F20002DE
:1099B0001163D8E7B0B5FEF733FE40F20C05C2F2F2
:1099C0000005E8680130E860FFF792FC0020FFF72F
:1099D00041FD286D002818BF8047296C59B3A8693C
:1099E000EA6B904204D0C269E863002A08BFC161F3
:1099F000C16900291CBF0139C161C069D8B9287A81
:109A0000022818D16C6AB4B1E86B94F8201090F871
:109A10002000814218BFB0BD2046FFF7F9FDE86B7A
:109A2000FFF788FEE86BFEF7F1FD2046FFF7E0FE4A
:109A3000286CEC63E061B0BD80B5FFF755FB0028F2
:109A40001CBF4FF0FF3080BD40F20C0049F68D2165
:109A5000C2F20000C1F6FF710165002080BD000068
:109A600082B004466D4600BF2046294600224FF0D2
:109A7000FF33FFF785F80028F6D1DDE90001FEF796
:109A8000CBFDDDE900108847EEE700002DE9F0414D
:109A900040F20C05C2F200056C6C002C08BFBDE85A
:109AA000F08120696E6901384FF00108206104E0FF
:109AB00084F801806C6C002C48D02069002845D1C6
:109AC000E068002200281CBFA16881606864E86C1F
:109AD00004F118010023FFF7BDF860B1D5E9057066
:109AE000214668610320FFF70FF9686986EA0701DC
:109AF000084308BF0646E078C007D9D06A6C6069A1
:109B0000DAB11369834205D9B2FA82F14B09002117
:109B10000AE000BF1146D268C01A7AB113698342C5
:109B2000F8D9B2FA82F35B09C4E90212206143B9A1
:109B300013699460181A106103E00021C4E902124D
:109B4000206100290CBF6C64CC60B3E76E61BDE896
:109B5000F0810000884700F001F80000FEF74CFD9E
:109B60004AF28D2CC1F6FF7C00DF00204FF0FF3160
:109B7000FEF740FDFEE7000070B514460D460646B0
:109B8000FEF742FDEFF3058028B9EFF3108010B91E
:109B9000EFF3118038B100206FF005010024FEF7CB
:109BA00029FD204670BD4AF2513C3046C1F6FF7C8B
:109BB0002946224600DF70BD4021C3F2890100BF63
:109BC0004A6FD206FCD4C2B200200A60704700007F
:109BD0004021C3F2890100BF4A6FD206FCD4C2B251
:109BE00000200A607047000010B550B104461320F1
:109BF0002146FFF70FFE48B12046FEF7B5FC0020D6
:109C000010BD6FF003006FF0030403E04FF0FF306E
:109C10004FF0FF34FEF7A6FC204610BD2DE9F041C1
:109C200040F20C07C2F20007387A50B1012800F068
:109C30009E804FF0FF30FEF79BFC4FF0FF30BDE8F9
:109C4000F08107F108009C21FEF7B1FB4AF264683D
:109C5000C1F6FF78D8E90202D8E90B41B8F8103014
:109C600038642046FA65A7F85430FFF7C5F8002895
:109C700018BFC7F88040D8E90541D8E90756204603
:109C8000FFF7BAF8D7F88010002818BF2146796787
:109C900028463146FFF7B0F8D7F88020002818BFD3
:109CA0002A46D8E90951BA672846FFF7A5F8D8F837
:109CB0003440D7F88010002818BF2946F9673CB116
:109CC0002168D4E902232046FFF704F9C7F884404D
:109CD000D8F838403CB12168D4E902232046FFF788
:109CE000F9F8C7F88840D8F83C403CB12168D4E97D
:109CF00002232046FFF7EEF8C7F88C40D8F8404022
:109D00003CB12168D4E902232046FFF7E3F8C7F805
:109D10009040D8F844403CB12168D4E90223204661
:109D2000FFF7D8F8C7F89440D8F848403CB121680C
:109D3000D4E902232046FFF7CDF8C7F89840D8F8B9
:109D40004C403CB12168D4E902232046FFF7C2F819
:109D5000C7F89C40D8F850403CB12168D4E90223B0
:109D60002046FFF7B7F8C7F8A04001203872FEF789
:109D700005FC0020BDE8F08110B540F20C04C2F2F1
:109D80000004207A01282ED1FFF70CFD18B34EF6FF
:109D90002251CEF20001FF200870087851F8162CED
:109DA00080F0FF00B0FA80F0C0F12000C2F3022280
:109DB000824228BF501CFE2282404AF26460C1F6F3
:109DC000FF70406801F8032C48F23531C1F6FF718D
:109DD000FEF74AFC70B14FF0FF304FF0FF34FEF752
:109DE000C7FB204610BD6FF00700FEF7C1FB4FF028
:109DF000FF3010BDFEF734FC2061FEF717FC04F1C4
:109E00001C00FFF7E5FBFFF7F3FC02202072FEF7D2
:109E1000B9FB002010BD00002DE9F047002818BF55
:109E2000002908D16FF003016FF00306FEF7BCFBB9
:109E30003046BDE8F0870778FA2FF3D100F1280704
:109E400057E8004F14B9BFF32F8F04E0651E47E8B1
:109E5000005606B1F4E7BA4664B3C46A54B39446F4
:109E6000012200BFA61CD6E84F7FC6E8452F05B1EA
:109E7000F9E73F0603D0A468002CF3D10024624622
:109E8000DCB9002B79D01A4604461D46FEF790FB3C
:109E900083202946FFF7BEFC002875D040F20C0055
:109EA000C2F2000041692046FFF79CFB6FF0010001
:109EB000BDE8F0870024002CE3D0D4E9013700F19D
:109EC0002C094E46002B18BF03F108063760A7681F
:109ED00080463E1D002F08BF00F130063360436A04
:109EE00004F10C060D460846314616461A46FEF7A2
:109EF00045FA002E1CBFE178317040462946FEF736
:109F000069FB08F10C050026284621462670FEF75D
:109F1000B5FFD8F80800A0B32846FEF78DFF4FF034
:109F2000000670B3044640464746FFF751FB002148
:109F300001220546FFF7ECFC2846FFF719FCD0F894
:109F400004807A6A054604F10C004146FEF716FAD1
:109F5000F9212170394651F8303F38462F7AA670E2
:109F6000E770C3B1DA78BA421AD200BF1A465B680A
:109F7000E3B1DE78BE42F9D313E0FEF723FB6FF0C6
:109F800002063046BDE8F0872046FEF713FB6FF06F
:109F90000100BDE8F0870022C4E90122C4620CE0A0
:109FA0000022C4E9013203F1080901E0C4E90132E9
:109FB000C9F80040002A18BF111D0C60544654E82F
:109FC000001F4A1C44E8002303B1F8E74146FEF7AE
:109FD000F5FA0020BDE8F0872DE9F04F83B00028A6
:109FE00018BF002909D100206FF003010026FEF7F9
:109FF000DBFA304603B0BDE8F08FB0FA80F3B1FA77
:10A0000081F73B441F2BEED9CB1C23F0030303F154
:10A010000C0404FB00FA8AB19379DB061DD4D2E963
:10A0200002731668D2E904523FB3342B27D1002DB6
:10A0300050D0AB074FD1524503D24CE0002500274A
:10A04000002640F20C02C2F2000201964FB1904687
:10A050004FF0000B3E461EBB4EE000206FF00601A5
:10A06000C4E78146D2F8A000029160B19046FEF7A5
:10A07000E3FE06464FF0010B0FE0002BD7D0002087
:10A080006FF00901B2E7D2F8800090463421012236
:10A090004FF0010BFEF744FE0646029948465EB3B8
:10A0A00055BB8146D8F87C00029151460022FEF74C
:10A0B00037FE054620B128465146FEF778F917E0ED
:10A0C000AFB9D8F8A000414658B188463146FEF7EE
:10A0D000D5FE0CE01AB100206FF00A0186E70025DA
:10A0E000AFE7D1F8800088463146FEF759FE0026DA
:10A0F00002990BF1020B4846FEB1FA22019B327025
:10A100000022F270C6E90132C6E90912C6E90B2243
:10A1100006F10C020146104622462B4686F802B094
:10A12000FEF7D8FE48F62D70C1F6FF707168C8F8CA
:10A1300070003046FEF736FA5BE700206FF004014E
:10A1400055E700002DE9F04381B0002818BF002931
:10A1500009D16FF003016FF00304FEF725FA2046E2
:10A1600001B0BDE8F0830778FA2FF2D191468268FA
:10A1700022B35278832A21D106460F46FEF71EFAF3
:10A180003046FFF725FA002101220446FFF7C0FB05
:10A190002046FFF7EDFA4468726A054620463946C4
:10A1A000B046FEF7EBF8A8682146002818BF80F8F3
:10A1B00000904046FEF70EFA0024D0E706460C3029
:10A1C0001F460D46FEF738FED8B1726A04460C30C1
:10A1D0002946FEF7D3F8324652F8303FF92130468F
:10A1E00021700021A17084F8039003B3D978494508
:10A1F00022D229461F465B688BB3DE784E45F9D3E1
:10A200001CE0FFB1304629463A46FEF7DFF99320BD
:10A210003946FFF7FFFAE0B140F20C00C2F200004D
:10A2200041693046FFF7DEF96FF0010497E7C4E9B2
:10A2300001112946C4621AE000272946C4E9013702
:10A24000083310E030462946FEF7BAF96FF00204F1
:10A2500085E73046FEF7BCF96FF001047FE7C4E9FB
:10A26000013700F12C031C60002F18BF3A1D146049
:10A2700000F1280252E8003F5C1C42E8004505B1AD
:10A28000F8E7FEF79BF9002469E70000B0B540F25B
:10A290000C05C2F20005287A022858D1686A002805
:10A2A00008BFB0BD6C69E06AFEF734FFA06930B149
:10A2B00000210022FFF72CFBA069FEF7A3F96078CC
:10A2C000232802D1A06800218161686A8168002981
:10A2D00069621CBF05F11C02CA600021C160C1781F
:10A2E00002224907427054BF0321022181F31488DE
:10A2F000BFF36F8FA861FEF78BF9EFF30981206B35
:10A30000A163814206D9006842F6A561CEF25A21C6
:10A31000884205D0A869214668610120FEF7F4FC57
:10A32000E1780020C907686103D12046FFF71CF9D6
:10A3300008E004216170696BE0600029A16018BF2A
:10A34000CC606C632046BDE8B040FEF751B9B0BDAB
:10A350002DE9F04F81B028B172B1556805F00603C0
:10A36000062B16D100206FF003010024FEF742F9FE
:10A37000204601B0BDE8F08F4FF0180900240025F9
:10A38000002700264FF0000815F0060F24D07EBBF2
:10A3900034E0EB021CD4D2E90243D2F80080D2E9C7
:10A3A0000476D2F81890002C40D0502B40D117B131
:10A3B0007A072DD166B3B9F1000F00F08080A9F1C2
:10A3C000390212F1390FDFD800206FF00C01CCE711
:10A3D00000206FF00601C8E74AF26462C1F6FF721E
:10A3E0001278D2070CBF45F0020545F004052EB1E6
:10A3F000482E0DD332466FF3DE024AB940F20C020A
:10A40000C2F2000200913CB14FF0000A04BB62E0CE
:10A4100000206FF00B01A8E78346D2F8880058B1FE
:10A42000FEF70AFD04464FF0010A0EE0002BBED0F5
:10A4300000206FF0090198E7D2F880005021012236
:10A440004FF0010AFEF76CFC04465846002C42D03F
:10A45000002F40D1834656B140F20C00C2F20000FA
:10A46000406F31460022FEF75BFC074612E040F2E7
:10A470000C024AF26461C2F20002C1F6FF71D2F826
:10A4800084004E6DC8B1FEF7D7FC0746002818BF00
:10A490000AF1100A5846E7B95FEACA7101D10024EF
:10A4A00017E040F20C01C2F200018346D1F88800A7
:10A4B00040B12146FEF7E2FC09E0506FD1E74FF0D2
:10A4C000180961E7D1F880002146FEF769FC0024F5
:10A4D00058464AF0020A002C5AD040F2F11121806D
:10A4E00005F00F01E1700021C4E90181C4E9031105
:10A4F000C4E90511E161C4F82310C4F82710C4F8B9
:10A500002B1084F82F10B9190546E06342F6A560B8
:10A510004039CEF25A20C4E90D6138604AF26460D5
:10A52000C1F6FF700078FD22400784F802A084F88D
:10A53000209084F8219084F82220276308D526F003
:10A540000301442904D0381D4439CC22FDF728FFEB
:10A55000A66B38213046FDF72AFF49F65530C1F683
:10A56000FF704FF08071C6E90E01009840F20C02B6
:10A57000C6E9080549F29960C1F6FF70E16BC2F2C5
:10A580000002106620464246FEF730F844B9EFE676
:10A5900000206FF00401FEF72DF8002C3FF4E8AE28
:10A5A0002046FEF757FFE3E682B0002004A40190A6
:10A5B0004FF47A70FEF792FA204600F041F8F7E780
:10A5C000426C696E6B792020207468726561644109
:10A5D0003A2048656C6C6F20576F726C64210000E4
:10A5E00002E008C8121F08C1002AFAD1704770475C
:10A5F000002001E001C1121F002AFBD1704770B595
:10A600000D46044602E02946FEF706FA14F8010B4F
:10A610000028F8D170BD2DE9F041044602FB01F09D
:10A620001F461646251838B104E020783946FEF753
:10A63000F3F9641CAC42F8D33046BDE8F081000069
:10A6400010B5044601E0FEF7E7F914F8010B0449E0
:10A650000028F8D1BDE810400A20FEF7DDB900005F
:10A660000000002002000000E803000005000000D8
:10A67000B8000020100000000000000000000000F2
:10A6800000000000000000000000000000000000CA
:10A69000F800002000200000000000000000000082
:10A6A00000000000000000000000000000000000AA
:10A6B00000000000000000000002000010A7FF1FC3
:10A6C0004CA7FF1F619AFF1F399AFF1F34A7FF1F76
:10A6D000040000007C2100201C220020000000005B
:10A6E000000000000000000000000000000000006A
:10A6F000000000000000000000000000000000005A
:10A7000000000000F82000202C21002000000000A4
:10A7100000000000000000007C210020500000002C
:10A7200020220020000200000100000000000000C4
:10A73000000000000000000000000000F8200020E1
:10A74000340000002C210020500000000000000018
:10A7500000000000CC210020500000002024002038
:10A7600000020000280000000000000000000000BF
:10A77000706F7374203C20363400707265203C206A
:10A780003800433A2F4D444B5F5061636B732F4B3E
:10A7900065696C2F694D5837445F4446502F312E00
:10A7A000372E382F53444B2F706C6174666F726D67
:10A7B0002F647269766572732F7372632F63636D92
:10A7C0005F696D7837642E630028766F7465436C1B
:10A7D0006F636B203D3D20756172744972646156F0
:10A7E0006F7465436C6F636B53616D706C696E67FA
:10A7F00029207C7C2028766F7465436C6F636B2006
:10A800003D3D207561727449726461566F74654391
:10A810006C6F636B5265666572656E636529004394
:10A820003A2F4D444B5F5061636B732F4B65696CDE
:10A830002F694D5837445F4446502F312E372E38FC
:10A840002F53444B2F706C6174666F726D2F64725E
:10A8500069766572732F7372632F756172745F69A5
:10A860006D782E63000000005254582056352E3962
:10A870002E30000098A8FF1F00000020B00000004C
:10A88000E0A5FF1F48A9FF1FB000002070290000AD
:10A89000F0A5FF1F00000000000000000000000005
:10A8A000001C4E0E68A8FF1F1050FC0200000000A4
:10A8B0000000000000000000000000000000000098
:10A8C0000000000000000000000000000000000088
:10A8D0000000000000000000000000000000000078
:10A8E0000000000000000000000000000000000068
:10A8F0000000000000000000000000000000000058
:10A900000000000000000000000000000000000047
:10A910000000000000000000000000000000000037
:10A920000000000000000000000000000000000027
:10A930000000000000000000000000000000000017
:08A9400000000000000000000F
:040000051FFF835501
:00000001FF
